:020000040800F2
:1000000000280020E90F0008CD0E0008D30E0008DC
:10001000D90E0008DF0E0008E50E00080000000001
:10002000000000000000000000000000EB0E0008CF
:10003000F70E000800000000030F00080F0F000873
:10004000311000083110000831100008311000088C
:10005000311000083110000831100008311000087C
:10006000311000083110000831100008311000086C
:10007000311000083110000831100008311000085C
:10008000311000083110000831100008311000084C
:10009000311000083110000831100008311000083C
:1000A000311000083110000831100008311000082C
:1000B0001D0F00083110000800000000311000087A
:1000C000311000080000000000000000311000089E
:1000D000000000003110000831100008000000008E
:1000E0003110000831100008311000080000000035
:1000F0000000000000000000000000000000000000
:0C01000000000000000000005FF808F1A3
:10010C0010B5054C237833B9044B13B10448AFF345
:10011C0000800123237010BD4C0000200000000063
:10012C008826000808B5034B1BB103490348AFF3FD
:10013C00008008BD00000000500000208826000848
:10014C0080B400AF064B1B68012B04D1044B00227A
:10015C001A60012300E000231846BD4680BC70479E
:10016C006800002080B400AF064B1B68012B04D143
:10017C00044B00221A60012300E000231846BD4600
:10018C0080BC70476C00002080B400AF064B1B682D
:10019C00012B04D1044B00221A60012300E0002340
:1001AC001846BD4680BC70477000002080B400AF7C
:1001BC00034B01221A6000BFBD4680BC704700BFD4
:1001CC006800002080B400AF034B01221A6000BF0E
:1001DC00BD4680BC704700BF6C00002080B400AFEF
:1001EC00034B01221A6000BFBD4680BC704700BFA4
:1001FC007000002080B500AF01220221074801F0F9
:10020C0014FA01220421054801F00FFA01220821F9
:10021C00024801F00AFA00BF80BD00BF000801408F
:10022C0080B500AFFFF7E6FF2D4B1B682D4A13601E
:10023C002D4B1B682A4A136002212C4801F0DEF971
:10024C0003461A46284B1A60264B1A68244B1B6827
:10025C009A4243D1224B1A68234B1B689A423DD1D8
:10026C00234B1A68204B1B689A4220D01E4B1B68EC
:10027C001F4A13601C4B1B68002B14D11D4B1B68B1
:10028C00012B05D1FFF792FF1B4B64221A6007E08C
:10029C00184B1B68002B03D1174B4FF496721A6046
:1002AC00FFF784FF1AE0134B00221A6016E0124B82
:1002BC001B68013B104A13600F4B1B68002B06D1C7
:1002CC000C4B01221A600A4B01221A6006E0094B02
:1002DC001B68012B02D1074B00221A6000BF80BDA6
:1002EC00040000200000002008000020000801404D
:1002FC000C000020740000203000002080B500AFFE
:10030C00FFF778FF2E4B1B682E4A13602E4B1B6891
:10031C002B4A136004212D4801F070F903461A464C
:10032C00294B1A60274B1A68254B1B689A422CD113
:10033C00234B1A68244B1B689A4226D1244B1A680B
:10034C00214B1B689A4238D01F4B1B68204A136004
:10035C001D4B1B68002B14D11E4B1B68012B05D1A8
:10036C00FFF730FF1C4B64221A6007E0194B1B6827
:10037C00002B03D1184B4FF496721A60FFF722FF33
:10038C001BE0144B00221A6017E0134B1B68013B57
:10039C00114A1360104B1B68002B06D10D4B012228
:1003AC001A600B4B01221A6007E00A4B1B68012BE9
:1003BC0003D1084B00221A60FFE700BF80BD00BFCD
:1003CC00140000201000002018000020000801403C
:1003DC001C000020780000203400002080B500AF05
:1003EC00FFF708FF2D4B1B682D4A13602D4B1B6824
:1003FC002A4A136008212C4801F000F903461A46DA
:10040C00284B1A60264B1A68244B1B689A4243D11E
:10041C00224B1A68234B1B689A423DD1234B1A6816
:10042C00204B1B689A4220D01E4B1B681F4A13603E
:10043C001C4B1B68002B14D11D4B1B68012B05D1C9
:10044C00FFF7CCFE1B4B64221A6007E0184B1B68AD
:10045C00002B03D1174B4FF496721A60FFF7BEFEB8
:10046C001AE0134B00221A6016E0124B1B68013B7A
:10047C00104A13600F4B1B68002B06D10C4B01224A
:10048C001A600A4B01221A6006E0094B1B68012B0B
:10049C0002D1074B00221A6000BF80BD240000204F
:1004AC002000002028000020000801402C00002023
:1004BC007C0000203800002080B500AFC14B1B68C9
:1004CC00092B00F2838101A252F823F001050008E8
:1004DC004905000891050008D90500082106000807
:1004EC0069060008B1060008F90600084107000873
:1004FC008907000800220121B34801F096F8002278
:10050C000221B14801F091F800220421AE4801F01B
:10051C008CF800220821AC4801F087F80022102149
:10052C00A94801F082F800222021A74801F07DF8AB
:10053C0001224021A44801F078F86BE1012201214D
:10054C00A14801F072F8002202219F4801F06DF8D9
:10055C00002204219C4801F068F8012208219A48E5
:10056C0001F063F801221021974801F05EF8012296
:10057C002021954801F059F801224021924801F0C0
:10058C0054F847E1002201218F4801F04EF8002277
:10059C0002218D4801F049F8012204218A4801F01A
:1005AC0044F800220821884801F03FF8002210216D
:1005BC00854801F03AF801222021834801F035F8F2
:1005CC0000224021804801F030F823E10022012173
:1005DC007D4801F02AF8002202217B4801F025F821
:1005EC0000220421784801F020F8002208217648E6
:1005FC0001F01BF801221021734801F016F80122BA
:10060C002021714801F011F8002240216E4801F0C0
:10061C000CF8FFE0012201216B4801F006F80022E2
:10062C000221694801F001F800220421664800F01B
:10063C00FCFF01220821644800F0F7FF0122102181
:10064C00614800F0F2FF002220215F4800F0EDFF2E
:10065C00002240215C4800F0E8FFDBE00022012191
:10066C00594800F0E2FF01220221574800F0DDFF5B
:10067C0000220421544800F0D8FF002208215248DF
:10068C0000F0D3FF012210214F4800F0CEFF0022D2
:10069C0020214D4800F0C9FF002240214A4800F0BB
:1006AC00C4FFB7E000220121474800F0BEFF012241
:1006BC000221454800F0B9FF00220421424800F015
:1006CC00B4FF00220821404800F0AFFF00221021A7
:1006DC003D4800F0AAFF002220213B4800F0A5FF76
:1006EC0000224021384800F0A0FF93E000220121B5
:1006FC00354800F09AFF00220221334800F095FFA4
:10070C0000220421304800F090FF012208212E48DD
:10071C0000F08BFF012210212B4800F086FF0122F4
:10072C002021294800F081FF01224021264800F0B9
:10073C007CFF6FE000220121234800F076FF0022AD
:10074C000221214800F071FF002204211E4800F014
:10075C006CFF002208211C4800F067FF00221021CA
:10076C00194800F062FF00222021174800F05DFFBD
:10077C0000224021144800F058FF4BE000220121D8
:10078C00114800F052FF002202210F4800F04DFFEB
:10079C00002204210C4800F048FF002208210A48DE
:1007AC0000F043FF01221021074800F03EFF002219
:1007BC002021054800F039FF00224021024800F0BA
:1007CC0034FF27E03C000020000C014000220121F6
:1007DC00114800F02AFF002202210F4800F025FFEB
:1007EC00002204210C4800F020FF002208210A48B6
:1007FC0000F01BFF00221021074800F016FF00221A
:10080C002021054800F011FF00224021024800F091
:10081C000CFF00BF00BF80BD000C014080B500AFD5
:10082C00AF4B1B68042B00F2BA8101A252F823F0E3
:10083C0051080008D5080008910900083F0A000873
:10084C00F90A0008642000F073FBA54B01221A6022
:10085C00FFF776FC0346012B0BD1A14B02221A6049
:10086C00A04B00221A609F4B1B681846FFF724FE12
:10087C00A0E1FFF777FC0346012B0FD1984B032225
:10088C001A60984B1B68092B02DD964B00221A60EC
:10089C00944B1B681846FFF70FFE8BE1FFF774FCB7
:1008AC000346012B40F07D818D4B04221A608D4B49
:1008BC001B68002B02DA8B4B09221A60894B1B68D0
:1008CC001846FFF7F9FD75E1874B1B68012B12D118
:1008DC00322000F02DFB834B1B68002BC0F2638190
:1008EC00804B1B681846FFF7E7FD7E4B1B68013BEE
:1008FC007C4A13605EE1FFF723FC0346012B0FD10A
:10090C004FF47A7000F014FB754B02221A60754B91
:10091C0000221A60734B1B681846FFF7CDFD49E1A6
:10092C00FFF720FC0346012B13D14FF47A7000F033
:10093C00FFFA6B4B03221A606A4B1B68092B02DD12
:10094C00684B00221A60674B1B681846FFF7B4FD12
:10095C0030E1FFF719FC0346012B13D14FF47A70E9
:10096C0000F0E6FA5E4B04221A605E4B1B68002B0B
:10097C0002DA5C4B09221A605A4B1B681846FFF7C7
:10098C009BFD17E1FFF7DCFB0346012B0CD14FF469
:10099C007A7000F0CDFA534B00221A60514B1B6851
:1009AC001846FFF789FD05E1FFF7DCFB0346012B39
:1009BC0018D14FF47A7000F0BBFA494B03221A603D
:1009CC00484B1B68092B02DD464B00221A60454B35
:1009DC001B681846FFF770FD424B1B680133414AF8
:1009EC001360E7E0FFF7D0FB0346012B15D14FF462
:1009FC007A7000F09DFA3B4B1B68002B02DA394BE6
:100A0C0009221A60374B1B681846FFF755FD354B0A
:100A1C001B68013B334A1360CCE0334B1B68012B42
:100A2C0040F0C380322000F083FA2D4B01221A6073
:100A3C00C0E0FFF797FB0346012B18D1284B03228C
:100A4C001A604FF47A7000F073FA264B1B68092B6E
:100A5C0002DD244B00221A60224B1B681846FFF75C
:100A6C002BFD204B1B6801331E4A1360A2E0FFF7DD
:100A7C0067FB0346012B0CD14FF47A7000F058FA47
:100A8C00184B00221A60174B1B681846FFF714FD11
:100A9C0090E0FFF779FB0346012B15D14FF47A70E8
:100AAC0000F046FA0F4B1B68002B02DA0D4B0922A3
:100ABC001A600C4B1B68013B0A4A1360094B1B68FC
:100ACC001846FFF7F9FC75E0074B1B68012B6ED13C
:100ADC00322000F02DFA024B01221A606AE000BFAE
:100AEC00800000203C00002084000020FFF74CFB1D
:100AFC000346012B15D14FF47A7000F019FA2E4BE6
:100B0C001B68002B02DA2C4B09221A602A4B1B683B
:100B1C001846FFF7D1FC284B1B68013B264A136093
:100B2C0048E0FFF70DFB0346012B0FD14FF47A7011
:100B3C0000F0FEF9214B02221A601F4B00221A60B2
:100B4C001D4B1B681846FFF7B7FC33E0FFF70AFB99
:100B5C000346012B18D14FF47A7000F0E9F9174BCA
:100B6C0003221A60144B1B68092B02DD124B002266
:100B7C001A60114B1B681846FFF79EFC0E4B1B6846
:100B8C0001330D4A136015E00D4B1B68012B10D17E
:100B9C00322000F0CDF9094B01221A600AE000BFA7
:100BAC0008E000BF06E000BF04E000BF02E000BFA9
:100BBC0000E000BF00BF80BD3C0000208000002092
:100BCC008400002080B500AF00F02EFA00F026F86B
:100BDC0000F0ACF800F05EF80C4801F08FF96420DE
:100BEC0000F0A6F9322000F0B7F9094B00221A6088
:100BFC00FFF714FE074B1B68012BF9D1322000F0D4
:100C0C00ABF92021044800F028FDF1E79400002006
:100C1C00800000208C0000200008014080B590B0BE
:100C2C0000AF07F1180328220021184601F01EFD21
:100C3C003B1D00221A605A609A60DA601A61022326
:100C4C00BB610123BB621023FB6200237B6307F1B2
:100C5C001803184600F01AFD0346002B01D000F0D3
:100C6C00D3F80F237B600023BB600023FB600023C1
:100C7C003B6100237B613B1D0021184600F086FF81
:100C8C000346002B01D000F0BFF800BF4037BD4633
:100C9C0080BD000080B586B000AF07F108030022CC
:100CAC001A605A609A60DA603B4600221A605A60F9
:100CBC001D4B4FF080421A601B4B41F63F725A603D
:100CCC00194B00229A60184B0922DA60164B00224D
:100CDC001A61154B00229A61134801F0BFF80346C4
:100CEC00002B01D000F090F84FF48053BB6007F15B
:100CFC00080319460C4801F055FA0346002B01D0A5
:100D0C0000F082F800233B6000237B603B461946D1
:100D1C00054801F01DFC0346002B01D000F074F8CF
:100D2C0000BF1837BD4680BD9400002080B586B04A
:100D3C0000AF07F1080300221A605A609A60DA606B
:100D4C00264B9B69254A43F004039361234B9B6913
:100D5C0003F004037B607B68204B9B691F4A43F0C4
:100D6C00080393611D4B9B6903F008033B603B68D0
:100D7C00002220211A4800F058FC00227F2119483B
:100D8C0000F053FC0E23BB600023FB6001233B618E
:100D9C0007F108031946124800F0B6FA2023BB608D
:100DAC000123FB6000233B6102237B6107F10803F5
:100DBC0019460B4800F0A8FA7F23BB600123FB60A7
:100DCC0000233B6102237B6107F1080319460548A8
:100DDC0000F09AFA00BF1837BD4680BD00100240E3
:100DEC0000080140000C014080B582B000AF786073
:100DFC00FFF716FAFFF782FAFFF7F0FA00F0C0F8E7
:100E0C0000BF0837BD4680BD80B400AF72B600BFCE
:100E1C00FEE7000080B485B000AF154B9B69144A07
:100E2C0043F001039361124B9B6903F00103BB6018
:100E3C00BB680F4BDB690E4A43F08053D3610C4BFC
:100E4C00DB6903F080537B607B680A4B5B68FB605B
:100E5C00FB6823F0E063FB60FB6843F08063FB609E
:100E6C00044AFB68536000BF1437BD4680BC704712
:100E7C00001002400000014080B584B000AF7860E3
:100E8C007B681B68B3F1804F13D10C4BDB690B4AA9
:100E9C0043F00103D361094BDB6903F00103FB60F1
:100EAC00FB68002200211C2000F0F7F91C2000F048
:100EBC0010FA00BF1037BD4680BD00BF00100240C5
:100ECC0080B400AFFEE780B400AFFEE780B400AFA3
:100EDC00FEE780B400AFFEE780B400AFFEE780B45D
:100EEC0000AF00BFBD4680BC704780B400AF00BFF0
:100EFC00BD4680BC704780B400AF00BFBD4680BC0F
:100F0C00704780B500AF00F0D5F800BF80BD000081
:100F1C0080B500AF024801F03DF800BF80BD00BFB6
:100F2C009400002080B400AF00BFBD4680BC704769
:100F3C0080B483B000AF7860054A7B681360054BC2
:100F4C0000221A6000BF0C37BD4680BC704700BF42
:100F5C00880000208400002080B483B000AF78604B
:100F6C00054A7B681360054B00221A6000BF0C37E2
:100F7C00BD4680BC704700BF900000208C00002054
:100F8C0080B400AF114B1B68002B0BDD0F4B1B68A3
:100F9C00013B0E4A13600D4B1B68002B02DC0C4B03
:100FAC0001221A600B4B1B68002B0BDD094B1B68D5
:100FBC00013B084A1360074B1B68002B02DC064BF5
:100FCC0001221A6000BFBD4680BC7047880000201B
:100FDC0084000020900000208C0000200C480D495B
:100FEC000D4A002302E0D458C4500433C4188C4278
:100FFC00F9D30A4A0A4C002301E013600432A242DE
:10100C00FBD3FFF78FFF01F00DFBFFF7DBFD704704
:10101C00000000204C000020C82600084C000020D6
:10102C00E0000020FEE7000080B500AF084B1B6815
:10103C00074A43F010031360032000F023F90F203C
:10104C0000F008F8FFF7E6FE0023184680BD00BF4D
:10105C000020024080B582B000AF7860124B1A6855
:10106C00124B1B7819464FF47A73B3FBF1F3B2FBB6
:10107C00F3F3184600F03BF90346002B01D0012393
:10108C000EE07B680F2B0AD8002279684FF0FF30F6
:10109C0000F003F9064A7B681360002300E001238B
:1010AC0018460837BD4680BD40000020480000208F
:1010BC004400002080B400AF054B1B781A46054B4A
:1010CC001B681344034A136000BFBD4680BC7047C5
:1010DC0048000020DC00002080B400AF024B1B68ED
:1010EC001846BD4680BC7047DC00002080B485B03B
:1010FC0000AF78607B6803F00703FB600C4BDB6888
:10110C00BB60BA684FF6FF031340BB60FB681A0262
:10111C00BB68134343F0BF6343F40033BB60044A22
:10112C00BB68D36000BF1437BD4680BC704700BF9E
:10113C0000ED00E080B400AF044BDB681B0A03F049
:10114C0007031846BD4680BC704700BF00ED00E0A9
:10115C0080B483B000AF0346FB7197F90730002BC6
:10116C000BDBFB7903F01F02064997F907305B098B
:10117C00012000FA02F241F8232000BF0C37BD46D3
:10118C0080BC704700E100E080B483B000AF034640
:10119C003960FB7197F90730002B0ADB3B68DAB238
:1011AC000C4997F907301201D2B20B4483F8002393
:1011BC000AE03B68DAB20849FB7903F00F03043B01
:1011CC001201D2B20B441A7600BF0C37BD4680BC5C
:1011DC00704700BF00E100E000ED00E080B489B092
:1011EC0000AFF860B9607A60FB6803F00703FB613D
:1011FC00FB69C3F10703042B28BF0423BB61FB6904
:10120C000433062B02D9FB69033B00E000237B610E
:10121C004FF0FF32BB6902FA03F3DA43BB681A40A2
:10122C007B699A404FF0FF317B6901FA03F3D94394
:10123C007B680B40134318462437BD4680BC70476F
:10124C0080B582B000AF78607B68013BB3F1807FE2
:10125C0001D301230FE00A4A7B68013B53600F2145
:10126C004FF0FF30FFF790FF054B00229A60044BC4
:10127C0007221A60002318460837BD4680BD00BF00
:10128C0010E000E080B582B000AF78607868FFF7BE
:10129C002DFF00BF0837BD4680BD80B586B000AFBE
:1012AC000346B9607A60FB7300237B61FFF742FF52
:1012BC0078617A68B9687869FFF790FF024697F908
:1012CC000F3011461846FFF75FFF00BF1837BD46B9
:1012DC0080BD80B582B000AF0346FB7197F9073033
:1012EC001846FFF735FF00BF0837BD4680BD80B5F7
:1012FC0082B000AF78607868FFF7A2FF034618460B
:10130C000837BD4680BD000080B48BB000AF78605C
:10131C00396000237B6200233B6248E101227B6A37
:10132C0002FA03F3FB613B681B68FA691340BB616B
:10133C00BA69FB699A4240F037813B685B68A34A03
:10134C0093425ED0A14A934275D8A14A934258D099
:10135C009F4A93426FD89F4A934252D09D4A9342E0
:10136C0069D89D4A93424CD09B4A934263D89B4A7E
:10137C00934246D0994A93425DD8122B2AD8122B0D
:10138C0059D801A252F823F00F140008E9130008F1
:10139C00FB1300083D140008431400084314000814
:1013AC0043140008431400084314000843140008B5
:1013BC0043140008431400084314000843140008A5
:1013CC00431400084314000843140008F1130008E8
:1013DC0005140008824A934213D02CE03B68DB686A
:1013EC003B6229E03B68DB6804333B6224E03B68EA
:1013FC00DB6808333B621FE03B68DB680C333B6205
:10140C001AE03B689B68002B02D104233B6213E07B
:10141C003B689B68012B05D108233B627B68FA690A
:10142C001A6109E008233B627B68FA695A6103E0A0
:10143C0000233B6200E000BFBB69FF2B01D87B6837
:10144C0001E07B6804337B61BB69FF2B02D87B6AAC
:10145C009B0002E07B6A083B9B003B617B691A683E
:10146C000F213B6901FA03F3DB431A40396A3B69EC
:10147C0001FA03F31A437B691A603B685B6803F05B
:10148C008053002B00F09080564B9B69554A43F0DB
:10149C0001039361534B9B6903F00103BB60BB6871
:1014AC00514A7B6A9B08023352F82330FB607B6AFB
:1014BC0003F003039B000F2202FA03F3DB43FA68E9
:1014CC001340FB607B68494A93420DD07B68484AC5
:1014DC00934207D07B68474A934201D1022304E030
:1014EC00032302E0012300E000237A6A02F00302E6
:1014FC0092009340FA681343FB603B497B6A9B085C
:10150C000233FA6841F823203B685B6803F48033AC
:10151C00002B06D0384B1A683749BB6913430B6054
:10152C0006E0354B1A68BB69DB43334913400B604B
:10153C003B685B6803F40033002B06D02E4B5A68D3
:10154C002D49BB6913434B6006E02B4B5A68BB69B2
:10155C00DB43294913404B603B685B6803F4801301
:10156C00002B06D0244B9A682349BB6913438B602C
:10157C0006E0214B9A68BB69DB431F4913408B6023
:10158C003B685B6803F40013002B06D01A4BDA6837
:10159C001949BB691343CB6006E0174BDA68BB698A
:1015AC00DB4315491340CB607B6A01337B623B689C
:1015BC001A687B6A22FA03F3002B7FF4AFAE00BFEC
:1015CC0000BF2C37BD4680BC704700BF00003210F6
:1015DC000000311000002210000021100000121039
:1015EC0000001110001002400000014000080140F2
:1015FC00000C0140001001400004014080B485B093
:10160C0000AF78600B467B807B689A687B881340C0
:10161C00002B02D00123FB7301E00023FB73FB7B47
:10162C0018461437BD4680BC704780B483B000AFF9
:10163C0078600B467B8013467B707B78002B03D045
:10164C007A887B681A6103E07B881A047B681A61CC
:10165C0000BF0C37BD4680BC704780B485B000AF6E
:10166C0078600B467B807B68DB68FB607A88FB6864
:10167C0013401A04FB68D9437B880B401A437B68E0
:10168C001A6100BF1437BD4680BC704780B586B068
:10169C0000AF78607B68002B01D101236CE27B6882
:1016AC001B6803F00103002B00F08780924B5B68F2
:1016BC0003F00C03042B0CD08F4B5B6803F00C0372
:1016CC00082B12D18C4B5B6803F48033B3F5803F4D
:1016DC000BD1894B1B6803F40033002B6CD07B6857
:1016EC005B68002B68D1012346E27B685B68B3F52D
:1016FC00803F06D1804B1B687F4A43F480331360D4
:10170C002EE07B685B68002B0CD17B4B1B687A4A04
:10171C0023F480331360784B1B68774A23F48023BF
:10172C0013601DE07B685B68B3F5A02F0CD1724B86
:10173C001B68714A43F4802313606F4B1B686E4A1D
:10174C0043F4803313600BE06B4B1B686A4A23F441
:10175C0080331360684B1B68674A23F48023136043
:10176C007B685B68002B13D0FFF7B6FC386108E090
:10177C00FFF7B2FC02463B69D31A642B01D9032351
:10178C00FAE15D4B1B6803F40033002BF0D014E03E
:10179C00FFF7A2FC386108E0FFF79EFC02463B69AC
:1017AC00D31A642B01D90323E6E1534B1B6803F4D2
:1017BC000033002BF0D100E000BF7B681B6803F006
:1017CC000203002B63D04C4B5B6803F00C03002B23
:1017DC000BD0494B5B6803F00C03082B1CD1464B18
:1017EC005B6803F48033002B16D1434B1B6803F06A
:1017FC000203002B05D07B681B69012B01D0012350
:10180C00BAE13D4B1B6823F0F8027B685B69DB0097
:10181C00394913430B603AE07B681B69002B20D0DD
:10182C00364B01221A60FFF757FC386108E0FFF7CE
:10183C0053FC02463B69D31A022B01D903239BE1CB
:10184C002D4B1B6803F00203002BF0D02A4B1B68B6
:10185C0023F0F8027B685B69DB00274913430B60BC
:10186C0015E0264B00221A60FFF736FC386108E0C1
:10187C00FFF732FC02463B69D31A022B01D9032332
:10188C007AE11D4B1B6803F00203002BF0D17B683F
:10189C001B6803F00803002B3AD07B689B69002B74
:1018AC0019D0174B01221A60FFF716FC386108E0BB
:1018BC00FFF712FC02463B69D31A022B01D9032312
:1018CC005AE10D4B5B6A03F00203002BF0D00120B0
:1018DC0000F0A6FA1CE00A4B00221A60FFF7FCFB92
:1018EC0038610FE0FFF7F8FB02463B69D31A022B75
:1018FC0008D9032340E100BF00100240000042421F
:10190C00800442429E4B5B6A03F00203002BE9D138
:10191C007B681B6803F00403002B00F0A6800023F7
:10192C00FB75974BDB6903F08053002B0DD1944B67
:10193C00DB69934A43F08053D361914BDB6903F02D
:10194C008053BB60BB680123FB758E4B1B6803F493
:10195C008073002B18D18B4B1B688A4A43F480731D
:10196C001360FFF7B9FB386108E0FFF7B5FB0246DF
:10197C003B69D31A642B01D90323FDE0814B1B680F
:10198C0003F48073002BF0D07B68DB68012B06D14D
:10199C007B4B1B6A7A4A43F0010313622DE07B6890
:1019AC00DB68002B0CD1764B1B6A754A23F00103C4
:1019BC001362734B1B6A724A23F0040313621CE01C
:1019CC007B68DB68052B0CD16D4B1B6A6C4A43F0B2
:1019DC00040313626A4B1B6A694A43F001031362E6
:1019EC000BE0674B1B6A664A23F001031362644BDE
:1019FC001B6A634A23F0040313627B68DB68002BC9
:101A0C0015D0FFF769FB38610AE0FFF765FB02466A
:101A1C003B69D31A41F28832934201D90323ABE0DC
:101A2C00574B1B6A03F00203002BEED014E0FFF7B8
:101A3C0053FB38610AE0FFF74FFB02463B69D31AB0
:101A4C0041F28832934201D9032395E04C4B1B6A37
:101A5C0003F00203002BEED1FB7D012B05D1484B8B
:101A6C00DB69474A23F08053D3617B68DB69002B29
:101A7C0000F08180424B5B6803F00C03082B61D0B3
:101A8C007B68DB69022B46D13F4B00221A60FFF7C3
:101A9C0023FB386108E0FFF71FFB02463B69D31AB2
:101AAC00022B01D9032367E0354B1B6803F000734D
:101ABC00002BF0D17B681B6AB3F5803F08D1304B0B
:101ACC005B6823F400327B689B682D4913434B60A1
:101ADC002B4B5B6823F474127B68196A7B685B6A16
:101AEC000B43274913434B60274B01221A60FFF726
:101AFC00F3FA386108E0FFF7EFFA02463B69D31AB4
:101B0C00022B01D9032337E01D4B1B6803F0007334
:101B1C00002BF0D02FE01C4B00221A60FFF7DCFAF0
:101B2C00386108E0FFF7D8FA02463B69D31A022B5A
:101B3C0001D9032320E0124B1B6803F00073002B28
:101B4C00F0D118E07B68DB69012B01D1012313E094
:101B5C000B4B5B68FB60FB6803F480327B681B6A91
:101B6C009A4206D1FB6803F470127B685B6A9A4256
:101B7C0001D0012300E0002318461837BD4680BD74
:101B8C0000100240007000406000424280B584B0FA
:101B9C0000AF786039607B68002B01D10123D0E065
:101BAC006A4B1B6803F007033A689A4210D9674BDB
:101BBC001B6823F0070265493B6813430B60634BBA
:101BCC001B6803F007033A689A4201D00123B8E07E
:101BDC007B681B6803F00203002B20D07B681B681A
:101BEC0003F00403002B05D0594B5B68584A43F4AF
:101BFC00E06353607B681B6803F00803002B05D07F
:101C0C00534B5B68524A43F460535360504B5B68D0
:101C1C0023F0F0027B689B684D4913434B607B6853
:101C2C001B6803F00103002B40D07B685B68012B21
:101C3C0007D1474B1B6803F40033002B15D101234C
:101C4C007FE07B685B68022B07D1414B1B6803F07C
:101C5C000073002B09D1012373E03D4B1B6803F08B
:101C6C000203002B01D101236BE0394B5B6823F09D
:101C7C0003027B685B68364913434B60FFF72CFA11
:101C8C00F8600AE0FFF728FA0246FB68D31A41F223
:101C9C008832934201D9032353E02D4B5B6803F048
:101CAC000C027B685B689B009A42EBD1274B1B684C
:101CBC0003F007033A689A4210D2244B1B6823F0B6
:101CCC00070222493B6813430B60204B1B6803F04F
:101CDC0007033A689A4201D0012332E07B681B6803
:101CEC0003F00403002B08D0194B5B6823F4E0626B
:101CFC007B68DB68164913434B607B681B6803F0F9
:101D0C000803002B09D0124B5B6823F460527B68EC
:101D1C001B69DB000E4913434B6000F021F80246AF
:101D2C000B4B5B681B0903F00F030A49CB5C22FACF
:101D3C0003F3094A1360094B1B681846FFF78AF92D
:101D4C00002318461037BD4680BD00BF002002405E
:101D5C0000100240B0260008400000204400002083
:101D6C0090B48AB000AF2A4B3C1D0FCB84E80F0017
:101D7C0040F201233B800023FB610023BB61002365
:101D8C007B6200237B6100233B62224B5B68FB611F
:101D9C00FB6903F00C03042B02D0082B03D02DE0BD
:101DAC001D4B3B622DE0FB699B0C03F00F0307F10D
:101DBC002802134413F8243C7B61FB6903F4803341
:101DCC00002B13D0134B5B685B0C03F0010307F182
:101DDC002802134413F8283CBB617B690E4A02FBB2
:101DEC0003F2BB69B2FBF3F37B6204E07B690B4A41
:101DFC0002FB03F37B627B6A3B6202E0064B3B62B5
:101E0C0000BF3B6A18462837BD4690BC704700BFE0
:101E1C00A02600080010024000127A0000093D00C4
:101E2C0080B485B000AF78600A4B1B680A4AA2FBED
:101E3C0003235B0A7A6802FB03F3FB6000BFFB68B9
:101E4C005A1EFA60002BF9D100BF00BF1437BD46F3
:101E5C0080BC704740000020D34D621080B582B02A
:101E6C0000AF78607B68002B01D1012341E07B68D7
:101E7C0093F83D30DBB2002B06D17B68002283F84F
:101E8C003C207868FEF7F8FF7B68022283F83D203F
:101E9C007B681A687B6804331946104600F06AFAAE
:101EAC007B68012283F846207B68012283F83E2060
:101EBC007B68012283F83F207B68012283F8402055
:101ECC007B68012283F841207B68012283F8422041
:101EDC007B68012283F843207B68012283F844202D
:101EEC007B68012283F845207B68012283F83D2022
:101EFC00002318460837BD4680BD000080B485B06D
:101F0C0000AF78607B6893F83D30DBB2012B01D0D9
:101F1C00012335E07B68022283F83D207B681B6837
:101F2C00DA687B681B6842F00102DA607B681B6828
:101F3C00164A934209D07B681B68B3F1804F04D0DA
:101F4C007B681B68124A934211D17B681B689B68A3
:101F5C0003F00703FB60FB68062B10D07B681B6843
:101F6C001A687B681B6842F001021A6007E07B6804
:101F7C001B681A687B681B6842F001021A60002318
:101F8C0018461437BD4680BC704700BF002C01407A
:101F9C000004004080B582B000AF78607B681B689D
:101FAC001B6903F00203022B22D17B681B68DB68E0
:101FBC0003F00203022B1BD17B681B686FF002023B
:101FCC001A617B6801221A777B681B689B6903F096
:101FDC000303002B03D0786800F0B1F905E07868B2
:101FEC0000F0A4F9786800F0B3F97B6800221A7746
:101FFC007B681B681B6903F00403042B22D17B68EC
:10200C001B68DB6803F00403042B1BD17B681B6883
:10201C006FF004021A617B6802221A777B681B68D6
:10202C009B6903F44073002B03D0786800F087F9A8
:10203C0005E0786800F07AF9786800F089F97B6837
:10204C0000221A777B681B681B6903F00803082BB6
:10205C0022D17B681B68DB6803F00803082B1BD1BB
:10206C007B681B686FF008021A617B6804221A7780
:10207C007B681B68DB6903F00303002B03D07868D3
:10208C0000F05DF905E0786800F050F9786800F030
:10209C005FF97B6800221A777B681B681B6903F069
:1020AC001003102B22D17B681B68DB6803F0100334
:1020BC00102B1BD17B681B686FF010021A617B68B8
:1020CC0008221A777B681B68DB6903F44073002BCA
:1020DC0003D0786800F033F905E0786800F026F951
:1020EC00786800F035F97B6800221A777B681B68EA
:1020FC001B6903F00103012B0ED17B681B68DB68A5
:10210C0003F00103012B07D17B681B686FF0010200
:10211C001A617868FEF768FE7B681B681B6903F020
:10212C008003802B0ED17B681B68DB6803F0800377
:10213C00802B07D17B681B686FF080021A6178686E
:10214C0000F067FA7B681B681B6903F04003402BA7
:10215C000ED17B681B68DB6803F04003402B07D172
:10216C007B681B686FF040021A61786800F0F9F820
:10217C007B681B681B6903F02003202B0ED17B6846
:10218C001B68DB6803F02003202B07D17B681B68DE
:10219C006FF020021A61786800F032FA00BF08373D
:1021AC00BD4680BD80B584B000AF786039607B6877
:1021BC0093F83C30012B01D10223B3E07B68012260
:1021CC0083F83C207B68022283F83D207B681B68E7
:1021DC009B68FB60FB6823F07703FB60FB6823F4D0
:1021EC007F43FB607B681B68FA689A603B681B68DE
:1021FC00B3F5005F3ED0B3F5005F00F28780B3F516
:10220C00805F00F08580B3F5805F7FD8702B1AD08B
:10221C00702B7BD8602B50D0602B77D8502B3CD0B8
:10222C00502B73D8402B58D0402B6FD8302B64D008
:10223C00302B6BD8202B60D0202B67D8002B5CD098
:10224C00102B5AD062E07B6818683B6899683B6831
:10225C005A683B68DB6800F05CF97B681B689B681C
:10226C00FB60FB6843F07703FB607B681B68FA68D4
:10227C009A604EE07B6818683B6899683B685A68BE
:10228C003B68DB6800F045F97B681B689A687B68E3
:10229C001B6842F480429A603BE07B6818683B689C
:1022AC0059683B68DB681A4600F0BCF87B681B6811
:1022BC005021184600F013F92BE07B6818683B6836
:1022CC0059683B68DB681A4600F0DAF87B681B68D3
:1022DC006021184600F003F91BE07B6818683B6826
:1022EC0059683B68DB681A4600F09CF87B681B68F1
:1022FC004021184600F0F3F80BE07B681A683B6845
:10230C001B681946104600F0EAF802E000BF00E036
:10231C0000BF7B68012283F83D207B68002283F894
:10232C003C20002318461037BD4680BD80B483B0D6
:10233C0000AF786000BF0C37BD4680BC704780B4DE
:10234C0083B000AF786000BF0C37BD4680BC7047CF
:10235C0080B483B000AF786000BF0C37BD4680BC42
:10236C00704780B483B000AF786000BF0C37BD46B7
:10237C0080BC704780B485B000AF786039607B68F2
:10238C001B68FB607B68254A934207D07B68B3F1DE
:10239C00804F03D07B68224A934208D1FB6823F01C
:1023AC007003FB603B685B68FA681343FB607B68F7
:1023BC001A4A934207D07B68B3F1804F03D07B68F5
:1023CC00174A934208D1FB6823F44073FB603B68C7
:1023DC00DB68FA681343FB60FB6823F080023B6800
:1023EC005B691343FB607B68FA681A603B689A6808
:1023FC007B68DA623B681A687B689A627B68074A7A
:10240C00934203D13B681A697B681A637B6801228B
:10241C005A6100BF1437BD4680BC7047002C014088
:10242C000004004080B487B000AFF860B9607A60F7
:10243C00FB681B6A7B61FB681B6A23F00102FB686B
:10244C001A62FB689B693B613B6923F0F0033B61BB
:10245C007B681B013A6913433B617B6923F00A03D8
:10246C007B617A69BB6813437B61FB683A699A614B
:10247C00FB687A691A6200BF1C37BD4680BC704786
:10248C0080B487B000AFF860B9607A60FB681B6AF3
:10249C0023F01002FB681A62FB689B697B61FB6886
:1024AC001B6A3B617B6923F470437B617B681B0374
:1024BC007A6913437B613B6923F0A0033B61BB68E2
:1024CC001B013A6913433B61FB687A699A61FB68AB
:1024DC003A691A6200BF1C37BD4680BC704780B495
:1024EC0085B000AF786039607B689B68FB60FB68E7
:1024FC0023F07003FB603A68FB68134343F0070357
:10250C00FB607B68FA689A6000BF1437BD4680BCDC
:10251C00704780B487B000AFF860B9607A603B60F8
:10252C00FB689B687B617B6923F47F437B613B6821
:10253C001A027B681A43BB6813437A6913437B61A5
:10254C00FB687A699A6000BF1C37BD4680BC704737
:10255C0080B485B000AF786039607B6893F83C300C
:10256C00012B01D1022341E07B68012283F83C203E
:10257C007B68022283F83D207B681B685B68FB60EC
:10258C007B681B689B68BB60FB6823F07003FB6077
:10259C003B681B68FA681343FB607B681B68FA682E
:1025AC005A607B681B68144A934209D07B681B688D
:1025BC00B3F1804F04D07B681B68104A93420CD156
:1025CC00BB6823F08003BB603B685B68BA6813434D
:1025DC00BB607B681B68BA689A607B68012283F8D1
:1025EC003D207B68002283F83C20002318461437DA
:1025FC00BD4680BC704700BF002C01400004004069
:10260C0080B483B000AF786000BF0C37BD4680BC8F
:10261C00704780B483B000AF786000BF0C37BD4604
:10262C0080BC704770B500260C4D0D4C641BA4107B
:10263C00A64209D100F022F800260A4D0A4C641B70
:10264C00A410A64205D170BD55F8043B984701363D
:10265C00EEE755F8043B98470136F2E7C026000830
:10266C00C0260008C0260008C42600080346024401
:10267C00934200D1704703F8011BF9E7F8B500BF8E
:10268C00F8BC08BC9E467047F8B500BFF8BC08BC47
:04269C009E4670479F
:1026A00002030405060708090A0B0C0D0E0F101093
:1026B00000000000000000000102030406070809F2
:0426C00031010008DC
:0426C4000D010008FC
:1026C80001000000010000000100000001000000FE
:1026D80001000000010000000100000001000000EE
:1026E80001000000010000000100000001000000DE
:1026F8002C0100002C0100002C0100000900000042
:0C2708000024F40010000000010000009C
:0400000508000FE9F7
:00000001FF
